{
  "contractName": "Battleship",
  "abi": [
    {
      "anonymous": false,
      "inputs": [
        {
          "indexed": false,
          "internalType": "address",
          "name": "caller",
          "type": "address"
        },
        {
          "indexed": false,
          "internalType": "address",
          "name": "board_owner",
          "type": "address"
        },
        {
          "indexed": false,
          "internalType": "bool",
          "name": "telling_truth",
          "type": "bool"
        }
      ],
      "name": "CheckOneShip",
      "type": "event"
    },
    {
      "anonymous": false,
      "inputs": [
        {
          "indexed": false,
          "internalType": "address",
          "name": "plaintiff",
          "type": "address"
        },
        {
          "indexed": false,
          "internalType": "address",
          "name": "accused",
          "type": "address"
        },
        {
          "indexed": false,
          "internalType": "uint256",
          "name": "time_of_accusion",
          "type": "uint256"
        }
      ],
      "name": "TimeAccusion",
      "type": "event"
    },
    {
      "inputs": [],
      "name": "store_bid",
      "outputs": [],
      "stateMutability": "payable",
      "type": "function"
    },
    {
      "inputs": [
        {
          "internalType": "bytes32",
          "name": "merkle_root",
          "type": "bytes32"
        }
      ],
      "name": "store_board_commitment",
      "outputs": [],
      "stateMutability": "nonpayable",
      "type": "function"
    },
    {
      "inputs": [
        {
          "internalType": "bytes",
          "name": "opening_nonce",
          "type": "bytes"
        },
        {
          "internalType": "bytes32[]",
          "name": "proof",
          "type": "bytes32[]"
        },
        {
          "internalType": "uint256",
          "name": "guess_leaf_index",
          "type": "uint256"
        },
        {
          "internalType": "address",
          "name": "owner",
          "type": "address"
        }
      ],
      "name": "check_one_ship",
      "outputs": [
        {
          "internalType": "bool",
          "name": "result",
          "type": "bool"
        }
      ],
      "stateMutability": "nonpayable",
      "type": "function"
    },
    {
      "inputs": [],
      "name": "claim_win",
      "outputs": [],
      "stateMutability": "nonpayable",
      "type": "function"
    },
    {
      "inputs": [
        {
          "internalType": "address payable",
          "name": "opponent",
          "type": "address"
        }
      ],
      "name": "forfeit",
      "outputs": [],
      "stateMutability": "nonpayable",
      "type": "function"
    },
    {
      "inputs": [
        {
          "internalType": "bytes",
          "name": "opening_nonce",
          "type": "bytes"
        },
        {
          "internalType": "bytes32[]",
          "name": "proof",
          "type": "bytes32[]"
        },
        {
          "internalType": "uint256",
          "name": "guess_leaf_index",
          "type": "uint256"
        },
        {
          "internalType": "address",
          "name": "owner",
          "type": "address"
        }
      ],
      "name": "accuse_cheating",
      "outputs": [
        {
          "internalType": "bool",
          "name": "result",
          "type": "bool"
        }
      ],
      "stateMutability": "nonpayable",
      "type": "function"
    },
    {
      "inputs": [
        {
          "internalType": "address",
          "name": "opponent",
          "type": "address"
        }
      ],
      "name": "claim_opponent_left",
      "outputs": [],
      "stateMutability": "nonpayable",
      "type": "function"
    },
    {
      "inputs": [
        {
          "internalType": "address payable",
          "name": "opponent",
          "type": "address"
        }
      ],
      "name": "handle_timeout",
      "outputs": [],
      "stateMutability": "nonpayable",
      "type": "function"
    },
    {
      "inputs": [
        {
          "internalType": "address",
          "name": "opponent",
          "type": "address"
        }
      ],
      "name": "claim_timeout_winnings",
      "outputs": [],
      "stateMutability": "nonpayable",
      "type": "function"
    },
    {
      "inputs": [],
      "name": "is_game_over",
      "outputs": [
        {
          "internalType": "bool",
          "name": "",
          "type": "bool"
        }
      ],
      "stateMutability": "nonpayable",
      "type": "function"
    },
    {
      "inputs": [
        {
          "internalType": "bytes32",
          "name": "a",
          "type": "bytes32"
        },
        {
          "internalType": "bytes32",
          "name": "b",
          "type": "bytes32"
        }
      ],
      "name": "merge_bytes32",
      "outputs": [
        {
          "internalType": "bytes",
          "name": "",
          "type": "bytes"
        }
      ],
      "stateMutability": "pure",
      "type": "function"
    },
    {
      "inputs": [
        {
          "internalType": "bytes",
          "name": "opening_nonce",
          "type": "bytes"
        },
        {
          "internalType": "bytes32[]",
          "name": "proof",
          "type": "bytes32[]"
        },
        {
          "internalType": "uint256",
          "name": "guess_leaf_index",
          "type": "uint256"
        },
        {
          "internalType": "bytes32",
          "name": "commit",
          "type": "bytes32"
        }
      ],
      "name": "verify_opening",
      "outputs": [
        {
          "internalType": "bool",
          "name": "result",
          "type": "bool"
        }
      ],
      "stateMutability": "view",
      "type": "function"
    }
  ],
  "bytecode": "0x608060405260016000806101000a81548160ff0219169083151502179055506001600060016101000a81548160ff0219169083151502179055506001600060026101000a81548160ff02191690831515021790555060008060036101000a81548160ff0219169083151502179055506000600360006101000a81548160ff0219169083151502179055506000600360016101000a81548160ff02191690836004811115620000a957fe5b02179055506040518060400160405280600481526020017f747275650000000000000000000000000000000000000000000000000000000081525060099080519060200190620000fb92919062000148565b506000600e60006101000a81548160ff021916908360ff1602179055506000600e60016101000a81548160ff021916908360ff1602179055503480156200014157600080fd5b50620001f7565b828054600181600116156101000203166002900490600052602060002090601f016020900481019282601f106200018b57805160ff1916838001178555620001bc565b82800160010185558215620001bc579182015b82811115620001bb5782518255916020019190600101906200019e565b5b509050620001cb9190620001cf565b5090565b620001f491905b80821115620001f0576000816000905550600101620001d6565b5090565b90565b612cf780620002076000396000f3fe6080604052600436106100a75760003560e01c8063a2c66df111610064578063a2c66df114610502578063a88f4db514610553578063b62829b91461058e578063deffa9671461072c578063f33bd1941461077d578063f66e88b1146107ac576100a7565b80630868d16b146100ac57806345f203b1146100c35780634ea0e9d4146100cd57806350a04b451461018b5780636cf399fa14610313578063a1fe3953146104b1575b600080fd5b3480156100b857600080fd5b506100c16107fd565b005b6100cb610aaf565b005b3480156100d957600080fd5b50610110600480360360408110156100f057600080fd5b810190808035906020019092919080359060200190929190505050610d0f565b6040518080602001828103825283818151815260200191508051906020019080838360005b83811015610150578082015181840152602081019050610135565b50505050905090810190601f16801561017d5780820380516001836020036101000a031916815260200191505b509250505060405180910390f35b34801561019757600080fd5b506102f9600480360360808110156101ae57600080fd5b81019080803590602001906401000000008111156101cb57600080fd5b8201836020820111156101dd57600080fd5b803590602001918460018302840111640100000000831117156101ff57600080fd5b91908080601f016020809104026020016040519081016040528093929190818152602001838380828437600081840152601f19601f8201169050808301925050505050505091929192908035906020019064010000000081111561026257600080fd5b82018360208201111561027457600080fd5b8035906020019184602083028401116401000000008311171561029657600080fd5b919080806020026020016040519081016040528093929190818152602001838360200280828437600081840152601f19601f8201169050808301925050505050505091929192908035906020019092919080359060200190929190505050610d76565b604051808215151515815260200191505060405180910390f35b34801561031f57600080fd5b506104976004803603608081101561033657600080fd5b810190808035906020019064010000000081111561035357600080fd5b82018360208201111561036557600080fd5b8035906020019184600183028401116401000000008311171561038757600080fd5b91908080601f016020809104026020016040519081016040528093929190818152602001838380828437600081840152601f19601f820116905080830192505050505050509192919290803590602001906401000000008111156103ea57600080fd5b8201836020820111156103fc57600080fd5b8035906020019184602083028401116401000000008311171561041e57600080fd5b919080806020026020016040519081016040528093929190818152602001838360200280828437600081840152601f19601f82011690508083019250505050505050919291929080359060200190929190803573ffffffffffffffffffffffffffffffffffffffff169060200190929190505050610e9f565b604051808215151515815260200191505060405180910390f35b3480156104bd57600080fd5b50610500600480360360208110156104d457600080fd5b81019080803573ffffffffffffffffffffffffffffffffffffffff1690602001909291905050506111ed565b005b34801561050e57600080fd5b506105516004803603602081101561052557600080fd5b81019080803573ffffffffffffffffffffffffffffffffffffffff169060200190929190505050611574565b005b34801561055f57600080fd5b5061058c6004803603602081101561057657600080fd5b8101908080359060200190929190505050611788565b005b34801561059a57600080fd5b50610712600480360360808110156105b157600080fd5b81019080803590602001906401000000008111156105ce57600080fd5b8201836020820111156105e057600080fd5b8035906020019184600183028401116401000000008311171561060257600080fd5b91908080601f016020809104026020016040519081016040528093929190818152602001838380828437600081840152601f19601f8201169050808301925050505050505091929192908035906020019064010000000081111561066557600080fd5b82018360208201111561067757600080fd5b8035906020019184602083028401116401000000008311171561069957600080fd5b919080806020026020016040519081016040528093929190818152602001838360200280828437600081840152601f19601f82011690508083019250505050505050919291929080359060200190929190803573ffffffffffffffffffffffffffffffffffffffff169060200190929190505050611961565b604051808215151515815260200191505060405180910390f35b34801561073857600080fd5b5061077b6004803603602081101561074f57600080fd5b81019080803573ffffffffffffffffffffffffffffffffffffffff1690602001909291905050506124ee565b005b34801561078957600080fd5b5061079261281c565b604051808215151515815260200191505060405180910390f35b3480156107b857600080fd5b506107fb600480360360208110156107cf57600080fd5b81019080803573ffffffffffffffffffffffffffffffffffffffff16906020019092919050505061285c565b005b600360029054906101000a900473ffffffffffffffffffffffffffffffffffffffff1673ffffffffffffffffffffffffffffffffffffffff163373ffffffffffffffffffffffffffffffffffffffff1614801561086c5750600a600e60009054906101000a900460ff1660ff16145b801561087c5750600a8080549050145b806109065750600360029054906101000a900473ffffffffffffffffffffffffffffffffffffffff1673ffffffffffffffffffffffffffffffffffffffff163373ffffffffffffffffffffffffffffffffffffffff161480156108e55750600a600b8054905014155b801561090557506006800263ffffffff16600d80549050600b8054905001145b5b8061098d5750600460009054906101000a900473ffffffffffffffffffffffffffffffffffffffff1673ffffffffffffffffffffffffffffffffffffffff163373ffffffffffffffffffffffffffffffffffffffff1614801561097b5750600a600e60019054906101000a900460ff1660ff16145b801561098c5750600a600b80549050145b5b80610a165750600460009054906101000a900473ffffffffffffffffffffffffffffffffffffffff1673ffffffffffffffffffffffffffffffffffffffff163373ffffffffffffffffffffffffffffffffffffffff161480156109f55750600a808054905014155b8015610a1557506006800263ffffffff16600c80549050600a8054905001145b5b610a1f57600080fd5b60038060016101000a81548160ff02191690836004811115610a3d57fe5b02179055506000600654600554019050600060058190555060006006819055503373ffffffffffffffffffffffffffffffffffffffff166108fc829081150290604051600060405180830381858888f19350505050158015610aa3573d6000803e3d6000fd5b50610aac612a83565b50565b60006004811115610abc57fe5b600360019054906101000a900460ff166004811115610ad757fe5b1480610b075750600480811115610aea57fe5b600360019054906101000a900460ff166004811115610b0557fe5b145b610b1057600080fd5b600480811115610b1c57fe5b600360019054906101000a900460ff166004811115610b3757fe5b1415610b62576000600360016101000a81548160ff02191690836004811115610b5c57fe5b02179055505b600060029054906101000a900460ff1615610bde5760008060026101000a81548160ff02191690831515021790555033600360026101000a81548173ffffffffffffffffffffffffffffffffffffffff021916908373ffffffffffffffffffffffffffffffffffffffff16021790555034600581905550610d0d565b600360029054906101000a900473ffffffffffffffffffffffffffffffffffffffff1673ffffffffffffffffffffffffffffffffffffffff163373ffffffffffffffffffffffffffffffffffffffff161415610c3957600080fd5b600554341015610c4857600080fd5b600554341115610c9e573373ffffffffffffffffffffffffffffffffffffffff166108fc60055434039081150290604051600060405180830381858888f19350505050158015610c9c573d6000803e3d6000fd5b505b33600460006101000a81548173ffffffffffffffffffffffffffffffffffffffff021916908373ffffffffffffffffffffffffffffffffffffffff1602179055506005546006819055506001600360016101000a81548160ff02191690836004811115610d0757fe5b02179055505b565b606080604067ffffffffffffffff81118015610d2a57600080fd5b506040519080825280601f01601f191660200182016040528015610d5d5781602001600182028036833780820191505090505b5090508360208201528260408201528091505092915050565b600080858051906020012090506000849050600080905060008090505b8751821015610e8e5760008160020a8481610daa57fe5b049050600060028281610db957fe5b069050600060018460020a60018660020a6006800263ffffffff16010381610ddd57fe5b04039050600060026001840181610df057fe5b06838503019050848060010195505081811115610e105750505050610d93565b600060028481610e1c57fe5b061415610e5657610e40888d8881518110610e3357fe5b6020026020010151610d0f565b8051906020012097508580600101965050610e85565b610e738c8781518110610e6557fe5b602002602001015189610d0f565b80519060200120975085806001019650505b50505050610d93565b858414945050505050949350505050565b600060026004811115610eae57fe5b600360019054906101000a900460ff166004811115610ec957fe5b14610ed357600080fd5b600360029054906101000a900473ffffffffffffffffffffffffffffffffffffffff1673ffffffffffffffffffffffffffffffffffffffff163373ffffffffffffffffffffffffffffffffffffffff16148015610f7d5750600460009054906101000a900473ffffffffffffffffffffffffffffffffffffffff1673ffffffffffffffffffffffffffffffffffffffff168273ffffffffffffffffffffffffffffffffffffffff16145b8061102e5750600460009054906101000a900473ffffffffffffffffffffffffffffffffffffffff1673ffffffffffffffffffffffffffffffffffffffff163373ffffffffffffffffffffffffffffffffffffffff1614801561102d5750600360029054906101000a900473ffffffffffffffffffffffffffffffffffffffff1673ffffffffffffffffffffffffffffffffffffffff168273ffffffffffffffffffffffffffffffffffffffff16145b5b61103757600080fd5b6000600360029054906101000a900473ffffffffffffffffffffffffffffffffffffffff1673ffffffffffffffffffffffffffffffffffffffff168373ffffffffffffffffffffffffffffffffffffffff16141561113c5761109d868686600154610d76565b9050806111335760038060016101000a81548160ff021916908360048111156110c257fe5b02179055506000600654600554019050600060058190555060006006819055503373ffffffffffffffffffffffffffffffffffffffff166108fc829081150290604051600060405180830381858888f19350505050158015611128573d6000803e3d6000fd5b50611131612a83565b505b809150506111e5565b61114a868686600254610d76565b9050806111e05760038060016101000a81548160ff0219169083600481111561116f57fe5b02179055506000600654600554019050600060058190555060006006819055503373ffffffffffffffffffffffffffffffffffffffff166108fc829081150290604051600060405180830381858888f193505050501580156111d5573d6000803e3d6000fd5b506111de612a83565b505b809150505b949350505050565b600360029054906101000a900473ffffffffffffffffffffffffffffffffffffffff1673ffffffffffffffffffffffffffffffffffffffff163373ffffffffffffffffffffffffffffffffffffffff161480156112975750600460009054906101000a900473ffffffffffffffffffffffffffffffffffffffff1673ffffffffffffffffffffffffffffffffffffffff168173ffffffffffffffffffffffffffffffffffffffff16145b806113485750600460009054906101000a900473ffffffffffffffffffffffffffffffffffffffff1673ffffffffffffffffffffffffffffffffffffffff163373ffffffffffffffffffffffffffffffffffffffff161480156113475750600360029054906101000a900473ffffffffffffffffffffffffffffffffffffffff1673ffffffffffffffffffffffffffffffffffffffff168173ffffffffffffffffffffffffffffffffffffffff16145b5b61135157600080fd5b600360029054906101000a900473ffffffffffffffffffffffffffffffffffffffff1673ffffffffffffffffffffffffffffffffffffffff163373ffffffffffffffffffffffffffffffffffffffff16141561148e574260088190555060008060016101000a81548160ff0219169083151502179055507fc8bd847c9d524c89d49882de260ed5255e9b1917dcef0c3e39661bc91deebeec33600460009054906101000a900473ffffffffffffffffffffffffffffffffffffffff1642604051808473ffffffffffffffffffffffffffffffffffffffff1673ffffffffffffffffffffffffffffffffffffffff1681526020018373ffffffffffffffffffffffffffffffffffffffff1673ffffffffffffffffffffffffffffffffffffffff168152602001828152602001935050505060405180910390a1611571565b4260078190555060008060006101000a81548160ff0219169083151502179055507fc8bd847c9d524c89d49882de260ed5255e9b1917dcef0c3e39661bc91deebeec33600360029054906101000a900473ffffffffffffffffffffffffffffffffffffffff1642604051808473ffffffffffffffffffffffffffffffffffffffff1673ffffffffffffffffffffffffffffffffffffffff1681526020018373ffffffffffffffffffffffffffffffffffffffff1673ffffffffffffffffffffffffffffffffffffffff168152602001828152602001935050505060405180910390a15b50565b600360029054906101000a900473ffffffffffffffffffffffffffffffffffffffff1673ffffffffffffffffffffffffffffffffffffffff163373ffffffffffffffffffffffffffffffffffffffff1614801561161e5750600460009054906101000a900473ffffffffffffffffffffffffffffffffffffffff1673ffffffffffffffffffffffffffffffffffffffff168173ffffffffffffffffffffffffffffffffffffffff16145b806116cf5750600460009054906101000a900473ffffffffffffffffffffffffffffffffffffffff1673ffffffffffffffffffffffffffffffffffffffff163373ffffffffffffffffffffffffffffffffffffffff161480156116ce5750600360029054906101000a900473ffffffffffffffffffffffffffffffffffffffff1673ffffffffffffffffffffffffffffffffffffffff168173ffffffffffffffffffffffffffffffffffffffff16145b5b6116d857600080fd5b600360029054906101000a900473ffffffffffffffffffffffffffffffffffffffff1673ffffffffffffffffffffffffffffffffffffffff163373ffffffffffffffffffffffffffffffffffffffff16141561175b57603c600754420310156117565760016000806101000a81548160ff0219169083151502179055505b611785565b603c60085442031015611784576001600060016101000a81548160ff0219169083151502179055505b5b50565b6001600481111561179557fe5b600360019054906101000a900460ff1660048111156117b057fe5b146117ba57600080fd5b600360029054906101000a900473ffffffffffffffffffffffffffffffffffffffff1673ffffffffffffffffffffffffffffffffffffffff163373ffffffffffffffffffffffffffffffffffffffff1614806118635750600460009054906101000a900473ffffffffffffffffffffffffffffffffffffffff1673ffffffffffffffffffffffffffffffffffffffff163373ffffffffffffffffffffffffffffffffffffffff16145b61186c57600080fd5b600360029054906101000a900473ffffffffffffffffffffffffffffffffffffffff1673ffffffffffffffffffffffffffffffffffffffff163373ffffffffffffffffffffffffffffffffffffffff1614156118e957806001819055506001600060036101000a81548160ff02191690831515021790555061190c565b806002819055506001600360006101000a81548160ff0219169083151502179055505b600060039054906101000a900460ff1680156119345750600360009054906101000a900460ff165b1561195e576002600360016101000a81548160ff0219169083600481111561195857fe5b02179055505b50565b60006002600481111561197057fe5b600360019054906101000a900460ff16600481111561198b57fe5b1461199557600080fd5b600360029054906101000a900473ffffffffffffffffffffffffffffffffffffffff1673ffffffffffffffffffffffffffffffffffffffff163373ffffffffffffffffffffffffffffffffffffffff161480611a3e5750600460009054906101000a900473ffffffffffffffffffffffffffffffffffffffff1673ffffffffffffffffffffffffffffffffffffffff163373ffffffffffffffffffffffffffffffffffffffff16145b611a4757600080fd5b600360029054906101000a900473ffffffffffffffffffffffffffffffffffffffff1673ffffffffffffffffffffffffffffffffffffffff168273ffffffffffffffffffffffffffffffffffffffff161480611af05750600460009054906101000a900473ffffffffffffffffffffffffffffffffffffffff1673ffffffffffffffffffffffffffffffffffffffff168273ffffffffffffffffffffffffffffffffffffffff16145b611af957600080fd5b60008060019050600360029054906101000a900473ffffffffffffffffffffffffffffffffffffffff1673ffffffffffffffffffffffffffffffffffffffff168473ffffffffffffffffffffffffffffffffffffffff16141561202057611b64878787600154610d76565b915060008090505b6004811015611c4e57878181518110611b8157fe5b602001015160f81c60f81b7effffffffffffffffffffffffffffffffffffffffffffffffffffffffffffff1916600982815460018160011615610100020316600290048110611bcc57fe5b815460011615611beb5790600052602060002090602091828204019190065b9054901a7f0100000000000000000000000000000000000000000000000000000000000000027effffffffffffffffffffffffffffffffffffffffffffffffffffffffffffff191614611c415760009150611c4e565b8080600101915050611b6c565b50808015611c595750815b80611c6c575080158015611c6b575081155b5b15611e275760008090505b600a80549050811015611d765785600a8281548110611c9257fe5b90600052602060002090602091828204019190069054906101000a900460ff1660ff161415611d69577f0fc32cf65f24918bb1645d36d2a193d0d7af3e3f40277429347fb75b66b81b40338685604051808473ffffffffffffffffffffffffffffffffffffffff1673ffffffffffffffffffffffffffffffffffffffff1681526020018373ffffffffffffffffffffffffffffffffffffffff1673ffffffffffffffffffffffffffffffffffffffff16815260200182151515158152602001935050505060405180910390a18293505050506124e6565b8080600101915050611c77565b508373ffffffffffffffffffffffffffffffffffffffff163373ffffffffffffffffffffffffffffffffffffffff1614611ddd57600e600181819054906101000a900460ff168092919060010191906101000a81548160ff021916908360ff160217905550505b600a8590806001815401808255809150506001900390600052602060002090602091828204019190069091909190916101000a81548160ff021916908360ff160217905550611f73565b60008090505b600c80549050811015611f2c5785600c8281548110611e4857fe5b90600052602060002090602091828204019190069054906101000a900460ff1660ff161415611f1f577f0fc32cf65f24918bb1645d36d2a193d0d7af3e3f40277429347fb75b66b81b40338685604051808473ffffffffffffffffffffffffffffffffffffffff1673ffffffffffffffffffffffffffffffffffffffff1681526020018373ffffffffffffffffffffffffffffffffffffffff1673ffffffffffffffffffffffffffffffffffffffff16815260200182151515158152602001935050505060405180910390a18293505050506124e6565b8080600101915050611e2d565b50600c8590806001815401808255809150506001900390600052602060002090602091828204019190069091909190916101000a81548160ff021916908360ff1602179055505b7f0fc32cf65f24918bb1645d36d2a193d0d7af3e3f40277429347fb75b66b81b40338584604051808473ffffffffffffffffffffffffffffffffffffffff1673ffffffffffffffffffffffffffffffffffffffff1681526020018373ffffffffffffffffffffffffffffffffffffffff1673ffffffffffffffffffffffffffffffffffffffff16815260200182151515158152602001935050505060405180910390a181925050506124e6565b61202e878787600254610d76565b915060008090505b60048110156121185787818151811061204b57fe5b602001015160f81c60f81b7effffffffffffffffffffffffffffffffffffffffffffffffffffffffffffff191660098281546001816001161561010002031660029004811061209657fe5b8154600116156120b55790600052602060002090602091828204019190065b9054901a7f0100000000000000000000000000000000000000000000000000000000000000027effffffffffffffffffffffffffffffffffffffffffffffffffffffffffffff19161461210b5760009150612118565b8080600101915050612036565b508080156121235750815b80612136575080158015612135575081155b5b156122f15760008090505b600b805490508110156122405785600b828154811061215c57fe5b90600052602060002090602091828204019190069054906101000a900460ff1660ff161415612233577f0fc32cf65f24918bb1645d36d2a193d0d7af3e3f40277429347fb75b66b81b40338685604051808473ffffffffffffffffffffffffffffffffffffffff1673ffffffffffffffffffffffffffffffffffffffff1681526020018373ffffffffffffffffffffffffffffffffffffffff1673ffffffffffffffffffffffffffffffffffffffff16815260200182151515158152602001935050505060405180910390a18293505050506124e6565b8080600101915050612141565b508373ffffffffffffffffffffffffffffffffffffffff163373ffffffffffffffffffffffffffffffffffffffff16146122a757600e600081819054906101000a900460ff168092919060010191906101000a81548160ff021916908360ff160217905550505b600b8590806001815401808255809150506001900390600052602060002090602091828204019190069091909190916101000a81548160ff021916908360ff16021790555061243d565b60008090505b600d805490508110156123f65785600d828154811061231257fe5b90600052602060002090602091828204019190069054906101000a900460ff1660ff1614156123e9577f0fc32cf65f24918bb1645d36d2a193d0d7af3e3f40277429347fb75b66b81b40338685604051808473ffffffffffffffffffffffffffffffffffffffff1673ffffffffffffffffffffffffffffffffffffffff1681526020018373ffffffffffffffffffffffffffffffffffffffff1673ffffffffffffffffffffffffffffffffffffffff16815260200182151515158152602001935050505060405180910390a18293505050506124e6565b80806001019150506122f7565b50600d8590806001815401808255809150506001900390600052602060002090602091828204019190069091909190916101000a81548160ff021916908360ff1602179055505b7f0fc32cf65f24918bb1645d36d2a193d0d7af3e3f40277429347fb75b66b81b40338584604051808473ffffffffffffffffffffffffffffffffffffffff1673ffffffffffffffffffffffffffffffffffffffff1681526020018373ffffffffffffffffffffffffffffffffffffffff1673ffffffffffffffffffffffffffffffffffffffff16815260200182151515158152602001935050505060405180910390a181925050505b949350505050565b600360029054906101000a900473ffffffffffffffffffffffffffffffffffffffff1673ffffffffffffffffffffffffffffffffffffffff163373ffffffffffffffffffffffffffffffffffffffff161480156125985750600460009054906101000a900473ffffffffffffffffffffffffffffffffffffffff1673ffffffffffffffffffffffffffffffffffffffff168173ffffffffffffffffffffffffffffffffffffffff16145b806126495750600460009054906101000a900473ffffffffffffffffffffffffffffffffffffffff1673ffffffffffffffffffffffffffffffffffffffff163373ffffffffffffffffffffffffffffffffffffffff161480156126485750600360029054906101000a900473ffffffffffffffffffffffffffffffffffffffff1673ffffffffffffffffffffffffffffffffffffffff168173ffffffffffffffffffffffffffffffffffffffff16145b5b61265257600080fd5b600360029054906101000a900473ffffffffffffffffffffffffffffffffffffffff1673ffffffffffffffffffffffffffffffffffffffff163373ffffffffffffffffffffffffffffffffffffffff16141561276357600060019054906101000a900460ff161580156126ca5750603c600854420310155b1561275e5760038060016101000a81548160ff021916908360048111156126ed57fe5b02179055506000600654600554019050600060058190555060006006819055503373ffffffffffffffffffffffffffffffffffffffff166108fc829081150290604051600060405180830381858888f19350505050158015612753573d6000803e3d6000fd5b5061275c612a83565b505b612819565b6000809054906101000a900460ff161580156127845750603c600754420310155b156128185760038060016101000a81548160ff021916908360048111156127a757fe5b02179055506000600654600554019050600060058190555060006006819055503373ffffffffffffffffffffffffffffffffffffffff166108fc829081150290604051600060405180830381858888f1935050505015801561280d573d6000803e3d6000fd5b50612816612a83565b505b5b50565b600060048081111561282a57fe5b600360019054906101000a900460ff16600481111561284557fe5b14156128545760019050612859565b600090505b90565b6002600481111561286957fe5b600360019054906101000a900460ff16600481111561288457fe5b1461288e57600080fd5b600360029054906101000a900473ffffffffffffffffffffffffffffffffffffffff1673ffffffffffffffffffffffffffffffffffffffff163373ffffffffffffffffffffffffffffffffffffffff161480156129385750600460009054906101000a900473ffffffffffffffffffffffffffffffffffffffff1673ffffffffffffffffffffffffffffffffffffffff168173ffffffffffffffffffffffffffffffffffffffff16145b806129e95750600460009054906101000a900473ffffffffffffffffffffffffffffffffffffffff1673ffffffffffffffffffffffffffffffffffffffff163373ffffffffffffffffffffffffffffffffffffffff161480156129e85750600360029054906101000a900473ffffffffffffffffffffffffffffffffffffffff1673ffffffffffffffffffffffffffffffffffffffff168173ffffffffffffffffffffffffffffffffffffffff16145b5b6129f257600080fd5b60038060016101000a81548160ff02191690836004811115612a1057fe5b02179055506000600654600554019050600060058190555060006006819055508173ffffffffffffffffffffffffffffffffffffffff166108fc829081150290604051600060405180830381858888f19350505050158015612a76573d6000803e3d6000fd5b50612a7f612a83565b5050565b60036004811115612a9057fe5b600360019054906101000a900460ff166004811115612aab57fe5b14612ab557600080fd5b6001600060026101000a81548160ff0219169083151502179055506000600360026101000a81548173ffffffffffffffffffffffffffffffffffffffff021916908373ffffffffffffffffffffffffffffffffffffffff1602179055506000600460006101000a81548173ffffffffffffffffffffffffffffffffffffffff021916908373ffffffffffffffffffffffffffffffffffffffff1602179055506000600581905550600060068190555060016000806101000a81548160ff0219169083151502179055506001600060016101000a81548160ff02191690831515021790555060008060036101000a81548160ff0219169083151502179055506000600360006101000a81548160ff02191690831515021790555060006001819055506000600281905550600a6000612bec9190612c74565b600b6000612bfa9190612c74565b600c6000612c089190612c74565b600d6000612c169190612c74565b6000600e60006101000a81548160ff021916908360ff1602179055506000600e60016101000a81548160ff021916908360ff1602179055506004600360016101000a81548160ff02191690836004811115612c6d57fe5b0217905550565b50805460008255601f016020900490600052602060002090810190612c999190612c9c565b50565b612cbe91905b80821115612cba576000816000905550600101612ca2565b5090565b9056fea2646970667358221220a9c6e30c161c72e15176d8a61938e7f225e2608b3ba10317c362a07a544b0ba564736f6c63430006060033",
  "immutableReferences": {},
  "source": "// SPDX-License-Identifier: MIT\npragma solidity >=0.4.22 <0.7.0;\n\n//import \"https://github.com/OpenZeppelin/openzeppelin-contracts/blob/release-v3.0.0/contracts/cryptography/ECDSA.sol\";\nimport \"../ECDSA.sol\";\n\ncontract Battleship {\n    using ECDSA for bytes32;\n    uint32 constant BOARD_LEN = 6;\n\n    // Declare state variables here.\n    bool player_1_accused_prevented = true;\n    bool player_2_accused_prevented = true;\n    bool first_player = true;\n    bool board_p1_asigned = false;\n    \n    bytes32 board_p1;\n    bytes32 board_p2;\n\n    bool board_p2_asigned = false;\n\n    enum GameStates { OPEN, PLACING, RUNNING, FINISHED, DONE }\n    GameStates game_state = GameStates.OPEN;\n\n    // Consider keeping state for:\n    // - player addresses\n    address payable player_1;\n    address payable player_2;\n\n    uint player_1_bid;  \n    uint player_2_bid;\n    //uint player_2_refund;\n\n    // - whether the game is over\n    // - board commitments\n    \n    // - whether a player has proven 10 winning moves\n    \n    uint player_1_left_start_time;\n    uint player_2_left_start_time;\n\n    bytes true_in_bytes = 'true';\n    // - whether a player has proven their own board had 10 ships\n    uint8[] player_1_ships;\n    uint8[] player_2_ships;\n    uint8[] player_1_waters;\n    uint8[] player_2_waters;\n\n    uint8 player_1_hits = 0;\n    uint8 player_2_hits = 0;\n    // Declare events here.\n    // Consider triggering an event upon accusing another player of having left.\n    event TimeAccusion(address plaintiff, address  accused, uint time_of_accusion);\n    event CheckOneShip(address caller, address board_owner, bool telling_truth);\n    //event IsGameOver(bool game_over);\n    //event ClaimedTimeoutWin(address who);\n    //event TimeDifference(uint difference);\n    // Store the bids of each player\n    // Start the game when both bids are received\n    //uint game_start_time;\n\n    //----------------------------------------------\n    //----------------------------------------------\n    //------------test_helping_functions------------\n    //----------------------------------------------\n\n    // function get_player_1_bid() public view returns (uint){\n    //     return player_1_bid;\n    // }\n\n    // function get_player_2_bid() public view returns (uint){\n    //     return player_2_bid;\n    // }\n\n    // function get_board_p1() public view returns (bytes32){\n    //     return board_p1;\n    // }\n\n    // function get_board_p2() public view returns (bytes32){\n    //     return board_p2;\n    // }\n    \n    //----------------------------------------------\n    //----------------------------------------------\n    //----------------------------------------------\n\n\n\n    \n    // The first player to call the function determines the bid amount.\n    // Refund excess bids to the second player if they bid too much.\n    function store_bid() public payable{\n\n        require(game_state == GameStates.OPEN || game_state == GameStates.DONE);\n\n        if(game_state == GameStates.DONE){\n            game_state = GameStates.OPEN;\n        }\n\n        if(first_player){\n            // if (msg.value <= 0) {\n            //     throw;\n            // }\n            first_player = false;\n            player_1 = msg.sender;\n            player_1_bid = msg.value;\n        } \n        else{\n            require(msg.sender != player_1);\n            require(msg.value >= player_1_bid);\n            // if(msg.value < player_1_bid){\n            //     throw;\n            // }\n            if(msg.value > player_1_bid){\n                //player_2_refund = msg.value - player_1_bid;\n                //payable(msg.sender).transfer(player_2_refund);\n                payable(msg.sender).transfer(msg.value - player_1_bid);\n            }\n            player_2 = msg.sender;\n            //player_2_bid = msg.value - player_2_refund;\n            player_2_bid = player_1_bid;\n            //game start time\n            //game_start_time = now;\n            //change game state\n            game_state = GameStates.PLACING;\n            \n        }\n    }\n\n    // Clear state - make sure to set that the game is not in session\n    function clear_state() internal {\n        \n        require(game_state == GameStates.FINISHED);\n\n        first_player = true; \n\n        player_1 = address(0);\n        player_2 = address(0);\n\n        player_1_bid = 0;\n        player_2_bid = 0;\n\n        player_1_accused_prevented = true;\n        player_2_accused_prevented = true;\n\n        board_p1_asigned = false;\n        board_p2_asigned = false;\n\n        board_p1 = \"\";\n        board_p2 = \"\";\n\n        delete player_1_ships;\n        delete player_2_ships;\n        delete player_1_waters;\n        delete player_2_waters;\n\n        player_1_hits = 0;\n        player_2_hits = 0;\n\n        game_state = GameStates.DONE;\n    }\n\n    // Store the initial board commitments of each player\n    // Note that merkle_root is the hash of the topmost value of the merkle tree\n    function store_board_commitment(bytes32 merkle_root) public {\n        \n        require(game_state == GameStates.PLACING);\n        require(msg.sender == player_1 || msg.sender == player_2);\n\n        if (msg.sender == player_1){\n            board_p1 = merkle_root;\n            board_p1_asigned = true;\n        }\n        else{\n            board_p2 = merkle_root;\n            board_p2_asigned = true;\n        }\n\n        if(board_p1_asigned && board_p2_asigned){\n            game_state = GameStates.RUNNING;\n        }\n    }\n\n    // Verify the placement of one ship on a board\n    // opening_nonce - corresponds to web3.utils.fromAscii(JSON.stringify(opening) + JSON.stringify(nonce)) in JS\n    // proof - a list of sha256 hashes you can get from get_proof_for_board_guess\n    // guess_leaf_index - the index of the guess as a leaf in the merkle tree\n    // owner - the address of the owner of the board on which this ship lives\n    function check_one_ship(bytes memory opening_nonce, bytes32[] memory proof,\n        uint256 guess_leaf_index, address owner) public returns (bool result) {\n        \n        require(game_state == GameStates.RUNNING);\n        require(msg.sender == player_1 || msg.sender == player_2);\n        require(owner == player_1 || owner == player_2);\n\n        bool telling_truth;\n        bool ship = true;\n\n        if(owner == player_1){\n            telling_truth = verify_opening(opening_nonce, proof,guess_leaf_index,board_p1);\n\n            for(uint i = 0; i < 4; i++){\n                if(true_in_bytes[i] != opening_nonce[i]){\n                    ship = false;\n                    break;\n                }\n            }\n\n            if(ship && telling_truth || !ship && !telling_truth){\n                for(uint i = 0; i < player_1_ships.length;i++){\n                    if(player_1_ships[i] == guess_leaf_index){\n                        emit CheckOneShip(msg.sender, owner, telling_truth);\n                        return telling_truth;\n                    }\n                }\n\n                if(msg.sender != owner){\n                   player_2_hits++; \n                } \n\n                player_1_ships.push(uint8(guess_leaf_index));\n            }\n            else{\n                for(uint i = 0; i < player_1_waters.length;i++){\n                    if(player_1_waters[i] == guess_leaf_index){\n                        emit CheckOneShip(msg.sender, owner, telling_truth);\n                        return telling_truth;\n                    }\n                }\n                player_1_waters.push(uint8(guess_leaf_index));\n            }\n            emit CheckOneShip(msg.sender, owner, telling_truth);\n            return telling_truth;\n        }\n        else{\n            telling_truth = verify_opening(opening_nonce, proof,guess_leaf_index,board_p2);\n\n            for(uint i = 0; i < 4; i++){\n                if(true_in_bytes[i] != opening_nonce[i]){\n                    ship = false;\n                    break;\n                }\n            }\n\n            if(ship && telling_truth || !ship && !telling_truth){\n                for(uint i = 0; i < player_2_ships.length;i++){\n                    if(player_2_ships[i] == guess_leaf_index){\n                        emit CheckOneShip(msg.sender, owner, telling_truth);\n                        return telling_truth;\n                    }\n                }\n\n                if(msg.sender != owner){\n                player_1_hits++;\n                }\n\n                player_2_ships.push(uint8(guess_leaf_index));\n\n            }\n            else{\n                for(uint i = 0; i < player_2_waters.length;i++){\n                    if(player_2_waters[i] == guess_leaf_index){\n                        emit CheckOneShip(msg.sender, owner, telling_truth);\n                        return telling_truth;\n                    }\n                }\n                player_2_waters.push(uint8(guess_leaf_index));\n            }\n            emit CheckOneShip(msg.sender, owner, telling_truth);\n            return telling_truth;\n        }\n\n    }\n\n    // Claim you won the game\n    // If you have checked 10 winning moves (hits) AND you have checked\n    // 10 of your own ship placements with the contract, then this function\n    // should transfer winning funds to you and end the game.\n    function claim_win() public {\n        \n        require(msg.sender == player_1 && player_1_hits == 10 && player_1_ships.length == 10 || \n        msg.sender == player_1 && player_2_ships.length != 10 && player_2_ships.length + player_2_waters.length == BOARD_LEN*BOARD_LEN || \n        msg.sender == player_2 && player_2_hits == 10 && player_2_ships.length == 10|| \n        msg.sender == player_2 && player_1_ships.length != 10 && player_1_ships.length + player_1_waters.length == BOARD_LEN*BOARD_LEN);\n\n        //change game state\n        game_state = GameStates.FINISHED;\n        \n        uint amount = player_1_bid + player_2_bid;\n\n        player_1_bid = 0;\n        player_2_bid = 0;\n\n        msg.sender.transfer(amount);\n\n        clear_state();\n    }\n\n    // Forfeit the game\n    // Regardless of cheating, board state, or any other conditions, this function\n    // results in all funds being sent to the opponent and the game being over.\n    function forfeit(address payable opponent) public {\n        \n        require(game_state == GameStates.RUNNING);\n        require(msg.sender == player_1 && opponent == player_2 || msg.sender == player_2 && opponent == player_1);\n\n        //change game state\n        game_state = GameStates.FINISHED;\n\n        uint amount = player_1_bid + player_2_bid;\n\n        player_1_bid = 0;\n        player_2_bid = 0;\n\n        opponent.transfer(amount);\n\n        clear_state();\n    }\n\n    // Claim the opponent cheated - if true, you win.\n    // opening_nonce - corresponds to web3.utils.fromAscii(JSON.stringify(opening) + JSON.stringify(nonce)) in JS\n    // proof - a list of sha256 hashes you can get from get_proof_for_board_guess (this is what the sender believes to be a lie)\n    // guess_leaf_index - the index of the guess as a leaf in the merkle tree\n    // owner - the address of the owner of the board on which this ship lives\n    function accuse_cheating(bytes memory opening_nonce, bytes32[] memory proof,\n        uint256 guess_leaf_index, address owner) public returns (bool result) {\n\n        require(game_state == GameStates.RUNNING);\n        require(msg.sender == player_1 && owner == player_2 || msg.sender == player_2 && owner == player_1);\n\n        bool telling_truth;\n        if(owner == player_1){\n            telling_truth = verify_opening(opening_nonce, proof,guess_leaf_index,board_p1);\n            if(!telling_truth){\n                //change game state\n                game_state = GameStates.FINISHED;\n                \n                uint amount = player_1_bid + player_2_bid;\n\n                player_1_bid = 0;\n                player_2_bid = 0;\n\n\n                msg.sender.transfer(amount);\n\n                clear_state();\n            }\n\n            return telling_truth;\n        }\n        else{\n            telling_truth = verify_opening(opening_nonce, proof,guess_leaf_index,board_p2);\n            if(!telling_truth){\n                //change game state\n                game_state = GameStates.FINISHED;\n                \n                uint amount = player_1_bid + player_2_bid;\n\n                player_1_bid = 0;\n                player_2_bid = 0;\n\n                msg.sender.transfer(amount);\n\n                clear_state();\n\n            }\n\n            return telling_truth;\n        }\n\n    }\n\n    // Claim the opponent of taking too long/leaving\n    // Trigger an event that both players should listen for.\n    function claim_opponent_left(address opponent) public {\n\n        require(msg.sender == player_1 && opponent == player_2 || msg.sender == player_2 && opponent == player_1);\n        \n        if (msg.sender == player_1){\n            player_2_left_start_time = now;\n            player_2_accused_prevented = false;\n            emit TimeAccusion(msg.sender, player_2, now);\n        }\n        else{\n            player_1_left_start_time = now;\n            player_1_accused_prevented = false;\n            emit TimeAccusion(msg.sender, player_1, now);\n        }\n    }\n\n    // Handle a timeout accusation - msg.sender is the accused party.\n    // If less than 1 minute has passed, then set state appropriately to prevent distribution of winnings.\n    // Otherwise, do nothing.\n    function handle_timeout(address payable opponent) public {\n        \n        require(msg.sender == player_1 && opponent == player_2 || msg.sender == player_2 && opponent == player_1);\n\n        if(msg.sender == player_1){\n            if(now - player_1_left_start_time < 60){\n                player_1_accused_prevented = true;\n            }\n            //emit TimeDifference(now - player_1_left_start_time);\n        }\n        else {\n            if(now - player_2_left_start_time < 60){\n                player_2_accused_prevented = true;\n            }\n            //emit TimeDifference(now - player_1_left_start_time);\n        }\n    }\n\n    // Claim winnings if opponent took too long/stopped responding after claim_opponent_left\n    // The player MUST claim winnings. The opponent failing to handle the timeout on their end should not\n    // result in the game being over. If the timer has not run out, do nothing.\n    function claim_timeout_winnings(address opponent) public {\n        \n        require(msg.sender == player_1 && opponent == player_2 || msg.sender == player_2 && opponent == player_1);\n\n        if(msg.sender == player_1){\n            if(!player_2_accused_prevented && now - player_2_left_start_time >= 60){\n                \n                //change game state\n                game_state = GameStates.FINISHED;\n                \n                uint amount = player_1_bid + player_2_bid;\n\n                player_1_bid = 0;\n                player_2_bid = 0;\n\n                msg.sender.transfer(amount);\n\n                clear_state();\n\n                //emit ClaimedTimeoutWin(msg.sender);\n            }\n        }\n        else {\n            if(!player_1_accused_prevented && now - player_1_left_start_time >= 60){\n                \n                //change game state\n                game_state = GameStates.FINISHED;\n                \n                uint amount = player_1_bid + player_2_bid;\n\n                player_1_bid = 0;\n                player_2_bid = 0;\n\n                msg.sender.transfer(amount);\n\n                clear_state();\n\n                //emit ClaimedTimeoutWin(msg.sender);\n            }\n        }\n    }\n\n    // Check if game is over\n    // Hint - use a state variable for this, so you can call it from JS.\n    // Note - you cannot use the return values of functions that change state in JS.\n    function is_game_over() public returns (bool) {\n        \n        if(game_state == GameStates.DONE){\n            //emit IsGameOver(true);\n            return true;\n        }\n        else{\n            //emit IsGameOver(false);\n            return false;\n        }\n    }\n\n    /**** Helper Functions below this point. Do not modify. ****/\n    /***********************************************************/\n\n    function merge_bytes32(bytes32 a, bytes32 b) pure public returns (bytes memory) {\n        bytes memory result = new bytes(64);\n        assembly {\n            mstore(add(result, 32), a)\n            mstore(add(result, 64), b)\n        }\n        return result;\n    }\n\n    // Verify the proof of a single spot on a single board\n    // \\args:\n    //      opening_nonce - corresponds to web3.utils.fromAscii(JSON.stringify(opening) + JSON.stringify(nonce)));\n    //      proof - list of sha256 hashes that correspond to output from get_proof_for_board_guess()\n    //      guess - [i, j] - guess that opening corresponds to\n    //      commit - merkle root of the board\n    function verify_opening(bytes memory opening_nonce, bytes32[] memory proof, uint guess_leaf_index, bytes32 commit) public view returns (bool result) {\n        bytes32 curr_commit = keccak256(opening_nonce); // see if this changes hash\n        uint index_in_leaves = guess_leaf_index;\n\n        uint curr_proof_index = 0;\n        uint i = 0;\n\n        while (curr_proof_index < proof.length) {\n            // index of which group the guess is in for the current level of Merkle tree\n            // (equivalent to index of parent in next level of Merkle tree)\n            uint group_in_level_of_merkle = index_in_leaves / (2**i);\n            // index in Merkle group in (0, 1)\n            uint index_in_group = group_in_level_of_merkle % 2;\n            // max node index for currrent Merkle level\n            uint max_node_index = ((BOARD_LEN * BOARD_LEN + (2**i) - 1) / (2**i)) - 1;\n            // index of sibling of curr_commit\n            uint sibling = group_in_level_of_merkle - index_in_group + (index_in_group + 1) % 2;\n            i++;\n            if (sibling > max_node_index) continue;\n            if (index_in_group % 2 == 0) {\n                curr_commit = keccak256(merge_bytes32(curr_commit, proof[curr_proof_index]));\n                curr_proof_index++;\n            } else {\n                curr_commit = keccak256(merge_bytes32(proof[curr_proof_index], curr_commit));\n                curr_proof_index++;\n            }\n        }\n        return (curr_commit == commit);\n\n    }\n}\n",
  "sourcePath": "C:\\Users\\vanco\\OneDrive\\Pota\\6 semester\\DMBLOCK\\Zadanie_2\\Zadanie 2\\kody\\contracts\\contract_starter.sol",
  "compiler": {
    "name": "solc",
    "version": "0.6.6+commit.6c089d02.Emscripten.clang"
  },
  "schemaVersion": "3.4.4",
  "updatedAt": "2022-04-12T21:20:40.671Z",
  "devdoc": {
    "methods": {}
  },
  "userdoc": {
    "methods": {
      "merge_bytes32(bytes32,bytes32)": {
        "notice": "********************************************************"
      }
    }
  }
}